:100000000C9461000C9473000C9473000C947300B6
:100010000C9473000C9473000C9473000C94730094
:100020000C9473000C9473000C9473000C94730084
:100030000C9473000C9473000C9473000C94730074
:100040000C946E020C9473000C9473000C94730067
:100050000C9473000C9473000C9473000C94730054
:100060000C9473000C94730000000000240027001F
:100070002A000000000023002600290000000000E4
:10008000250028002B0004040404040404040202D4
:100090000202020203030303030301020408102007
:1000A0004080010204081020010204081020000012
:1000B0000008000201000003040700000000000027
:1000C000000011241FBECFEFD8E0DEBFCDBF21E07E
:1000D000A0E0B1E001C01D92AB30B207E1F70E9491
:1000E000B8020C94E3030C940000833081F028F4F0
:1000F000813099F08230A9F008958730A9F08830D6
:10010000C9F08430B1F4809180008F7D03C080916C
:1001100080008F7780938000089584B58F7784BDA9
:10012000089584B58F7DFBCF8091B0008F77809349
:10013000B00008958091B0008F7DF9CF1F93CF93C9
:10014000DF93282F30E0F901E255FF4F8491F90148
:10015000E656FF4FD491F901EA57FF4FC491CC23E3
:10016000A9F0162F81110E947500EC2FF0E0EE0F20
:10017000FF1FE458FF4FA591B4918FB7F894EC910D
:10018000111108C0D095DE23DC938FBFDF91CF9192
:100190001F910895DE2BF8CF3FB7F89480910701A7
:1001A00090910801A0910901B0910A0126B5A89B80
:1001B00005C02F3F19F00196A11DB11D3FBFBA2FF9
:1001C000A92F982F8827BC01CD01620F711D811DB9
:1001D000911D42E0660F771F881F991F4A95D1F73E
:1001E0000895CF93DF93EB018A30910508F05FC14A
:1001F00083509F4FFC010C94C90307013D016C0122
:10020000A501CC01FB011A0241024802480289E023
:100210006130710509F482E061E00E949E008AE08D
:10022000C130D10509F483E061E00E949E008BE0BB
:10023000C130D10509F484E061E00E949E008CE0A9
:10024000C130D10509F485E061E00E949E008DE097
:10025000C130D10509F486E061E00E949E008EE085
:10026000C130D10509F487E061E00E949E008FE073
:10027000219709F488E060E064C089E0613071058D
:1002800009F482E060E00E949E008AE0C130D1055E
:1002900009F483E061E00E949E008BE0C130D1054B
:1002A00009F484E061E00E949E008CE0C130D10539
:1002B00009F485E060E00E949E008DE0C130D10528
:1002C00009F486E060E00E949E008EE0C130D10516
:1002D00009F487E060E0C9CF89E06130710509F475
:1002E00082E061E00E949E008AE0C130D10509F4FD
:1002F00083E061E00E949E008BE0C130D10509F4EB
:1003000084E060E00E949E008CE0C130D10509F4D9
:1003100085E061E00E949E008DE0C130D10509F4C6
:1003200086E061E00E949E008EE0C130D10509F4B4
:1003300087E060E00E949E008FE0219709F488E04A
:1003400061E0DF91CF910C949E0089E061307105EE
:1003500009F482E061E00E949E008AE0C130D1058C
:1003600009F483E061E00E949E008BE0C130D1057A
:1003700009F484E061E00E949E008CE0C130D10568
:1003800009F485E061E00E949E008DE0C130D10556
:1003900009F486E060E0C6CF89E06130710509F4B8
:1003A00082E060E00E949E008AE0C130D10509F43D
:1003B00083E061E00E949E008BE0C130D10509F42A
:1003C00084E061E00E949E008CE0C130D10509F418
:1003D00085E060E00E949E008DE0C130D10509F407
:1003E00086E060E00E949E008EE0C130D10509F4F5
:1003F00087E061E09FCF89E06130710509F482E018
:1004000061E00E949E008AE0C130D10509F483E0DA
:1004100060E00E949E008BE0C130D10509F484E0C9
:1004200061E00E949E008CE0C130D10509F485E0B6
:1004300061E0D0CF89E06130710509F482E061E0CC
:100440000E949E008AE0C130D10509F483E060E09B
:100450000E949E008BE0C130D10509F484E061E088
:100460000E949E008CE0C130D10509F485E061E076
:100470000E949E008DE0C130D10509F486E061E064
:10048000B1CF89E06130710509F482E061E0FBCE13
:1004900089E06130710509F482E061E00E949E000C
:1004A0008AE0C130D10509F483E061E0D1CF89E071
:1004B0006130710509F482E060E00E949E008AE0EC
:1004C000C130D10509F483E060E00E949E008BE01A
:1004D000C130D10509F484E060E0E5CE1F920F92AF
:1004E0000FB60F9211242F933F938F939F93AF9347
:1004F000BF938091030190910401A0910501B091F7
:1005000006013091020123E0230F2D3758F50196A3
:10051000A11DB11D2093020180930301909304015A
:10052000A0930501B0930601809107019091080105
:10053000A0910901B0910A010196A11DB11D8093FE
:10054000070190930801A0930901B0930A01BF919C
:10055000AF919F918F913F912F910F900FBE0F9070
:100560001F90189526E8230F0296A11DB11DD2CF2A
:10057000789484B5826084BD84B5816084BD85B57E
:10058000826085BD85B5816085BD80916E0081608A
:1005900080936E0010928100809181008260809330
:1005A0008100809181008160809381008091800032
:1005B0008160809380008091B10084608093B1005D
:1005C0008091B00081608093B00080917A00846057
:1005D00080937A0080917A00826080937A00809183
:1005E0007A00816080937A0080917A00806880939D
:1005F0007A001092C10022E030E0F901E656FF4F88
:100600004491F901EA57FF4F8491882399F090E0D3
:10061000880F991FFC01E859FF4FA591B491FC0187
:10062000E458FF4F859194918FB7F894EC91E42BA7
:10063000EC938FBF2F5F3F4F2E303105F1F65BE912
:10064000852E50E0952EF4012491C7E8D0E0FE01FC
:1006500084918823C9F090E0880F991FFC01E85924
:10066000FF4FA591B491FC01E458FF4F459154917F
:100670009FB7F8943C91822F809583238C93FA0145
:100680008081282B20839FBF2FEA222E20E0322E4C
:100690003AE0A32EB12C00E010E0F1018491F401C6
:1006A000F490FE01E490E11045C08091000190912A
:1006B00001010196843691050CF052C0909301011E
:1006C000809300018091000190910101B5010E9489
:1006D000B5039B017C0161E070E0C9010E94F1005B
:1006E00062E070E0C7010E94F1000E94CC002B0183
:1006F0003C0188ECC82ED12CE12CF12C0E94CC00BE
:100700006419750986099709683E7340810591054A
:10071000A8F3F1E0CF1AD108E108F10828EE420E63
:1007200023E0521E611C711CC114D104E104F104C8
:1007300029F70FC081110E947500EE2DF0E0EE0F39
:10074000FF1FEE58FF4FA591B4918C91F82209F448
:10075000ACCF0115110509F4A0CF0E9400009DCF78
:100760001092010110920001ADCF97FB072E16F4F5
:10077000009407D077FD09D00E94CF0307FC05D075
:100780003EF4909581959F4F0895709561957F4FA8
:100790000895EE0FFF1F0590F491E02D0994AA1B18
:1007A000BB1B51E107C0AA1FBB1FA617B70710F05C
:1007B000A61BB70B881F991F5A95A9F7809590958E
:0A07C000BC01CD010895F894FFCFAD
:00000001FF
